:020000040800F2
:10000000A80802200D0200088F930008073300089B
:100010008D93000871070008C99B000800000000CC
:10002000000000000000000000000000199400081B
:10003000E50B00080000000091930008BD94000843
:1000400027020008270200082702000827020008EC
:1000500027020008270200082702000827020008DC
:1000600027020008270200082702000827020008CC
:1000700027020008270200082702000827020008BC
:1000800027020008270200082702000827020008AC
:1000900011080008270200082702000827020008AC
:1000A000270200082702000827020008270200088C
:1000B0001995000825950008270200082702000866
:1000C000270200082702000827020008270200086C
:1000D00027020008119B00086D9B000827020008FA
:1000E000270200082702000827020008270200084C
:1000F000270200082702000827020008270200083C
:10010000270200082702000827020008270200082B
:10011000270200082702000827020008270200081B
:10012000270200082702000827020008270200080B
:1001300027020008270200082702000827020008FB
:1001400027020008270200082702000827020008EB
:1001500027020008270200082702000827020008DB
:1001600027020008270200082702000827020008CB
:1001700027020008270200082702000800000000EC
:1001800027020008270200082702000827020008AB
:10019000270200082702000827020008270200089B
:1001A000270200082702000827020008270200088B
:1001B000270200082702000827020008270200087B
:1001C000270200082702000800000000270200089C
:1001D000270200082702000827020008270200085B
:1001E000270200082702000827020008270200084B
:1001F0002702000827020008DFF80CD000F018FAE8
:100200000048004769A50008A80802200648804762
:1002100006480047FEE7FEE7FEE7FEE7FEE7FEE7EB
:10022000FEE7FEE7FEE7FEE7C1940008F9010008DB
:1002300030B50B46014600202022012409E021FAB6
:1002400002F59D4205D303FA02F5491B04FA02F5B3
:100250002844151EA2F10102F1DC30BD2DE9F05F4A
:100260000546002092469B46884606468146402425
:100270001BE0284641464746224600F0FAF953461D
:100280005A46C01A914110D311461846224600F032
:10029000E1F92D1A67EB01084F46224601200021A3
:1002A00000F0D8F917EB00094E41201EA4F101041B
:1002B000DFDC484631462A464346BDE8F09F2DE93B
:1002C000FE4F804681EA0300C00F0C46009021F0EB
:1002D000004123F00045B8EB0200A94105D2404699
:1002E000214690461C460B46024623F00040104330
:1002F00047D0270DC7F30A00C3F30A510290401AF2
:10030000019040286BDAC3F3130040F4801B00987F
:10031000924620B10023D2EB030A63EB0B0B01984A
:100320005946C0F14002504600F094F906460D4689
:1003300050465946019A00F0ACF910EB08006141B3
:10034000002487EA115284EAE7731A4340D0009AE6
:1003500062B3019A012A4FEA075215DC001B61EBD8
:1003600002014FF0004202EA0752CDE90042001CB0
:1003700041F5801132462B4600F0ACF903B0BDE8E0
:10038000F08F40462146F9E7001B61EB0201001C9B
:1003900041F5801300185B412018A2F5001747EBC8
:1003A000030140EAD570B6196D4111E06D084FEABE
:1003B000360645EAC0754FEA0752001B61EB0201A1
:1003C000001C41F5801149084FEA300000195141E5
:1003D00032462B4603B0BDE8F04F00F06CB90098F0
:1003E000012240000023D0EB020263EBE07300988F
:1003F00021464FEAE074B8EB000061EB0401E9E745
:1004000083F000435BE781F0004158E72DE9FE4FA0
:1004100081EA030404F0004421F0004100944FF00D
:10042000000B23F0004350EA01045ED052EA0304BB
:100430005BD0C3F30A54C1F30A552C44A4F2F3343D
:100440000194A0FB0254C1F3130141F48011C3F3E2
:10045000130343F4801301FB024400FB034E840AA0
:10046000970A44EA815447EA8357A4FB0768029538
:100470008D0A05FB07854FEA932C04FB0C542705D6
:10048000029D4FEA065847EA1637B5EB08056EEBB2
:10049000070C870E920E47EA811742EA8312A7FBE8
:1004A0000201B6EB0B0164EB00042B0D43EA0C33A5
:1004B0005E1844EB1C50DA465146E7FB0201C5F3D7
:1004C00013044FEA0B3343EA14534FEA0432019CFE
:1004D00043EA0603A4F10C040294009CCDE900B4A5
:1004E00000F0F8F803B0BDE8F08F00200146F9E70E
:1004F0002DE9F04D81EA030404F0004B21F00045A2
:1005000014464FF0000A23F0004150EA050220D0C3
:1005100054EA01021DD0C5F30A570246C5F313037E
:10052000C1F31300C1F30A5640F4801543F480135D
:10053000A7EB0608101BD64608F2FD3873EB050042
:1005400002D308F1010801E092185B41B8F1000FF5
:1005500003DA00200146BDE8F08D00204FF4801141
:10056000064684460EE0171B73EB050705D3121BE6
:1005700063EB050306434CEA010C49084FEA3000DF
:1005800092185B4150EA0107EDD152EA030012D004
:1005900082EA040083EA0501084305D0101BAB4141
:1005A00006D20122002306E000224FF0004302E0C1
:1005B0006FF0010253101AEB06004CEB085110EBE0
:1005C0000A0041EB0B01BDE8F04D00F074B8C1F337
:1005D0000A52C1F3130140F2FF3341F480119A42F1
:1005E00002DA00200146704740F233439A42A2F2F9
:1005F000334202DC524200F03CB800F02BB800005D
:1006000030B5041E71F1000404DB4FF00044404299
:1006100064EB0101141E73F1000405DB1C464FF06E
:100620000043524263EB0403994208BF904230BD3D
:10063000064C074D06E0E06840F0010394E807002F
:1006400098471034AC42F6D3FFF7DAFDE8EF000824
:1006500008F00008202A04DB203A00FA02F100200A
:1006600070479140C2F1200320FA03F319439040F0
:100670007047202A04DB203A21FA02F0002170475B
:1006800021FA02F3D040C2F12002914008431946FA
:100690007047202A06DBCB17203A41FA02F043EAE2
:1006A000E07306E041FA02F3D040C2F1200291402B
:1006B00008431946704710B5141E73F1000408DA98
:1006C000401C41F1000192185B411A4301D120F016
:1006D000010010BD2DE9F04D92469B4611B1B1FAD3
:1006E00081F202E0B0FA80F220329046FFF7B2FFCA
:1006F00004460F4640EA0A0041EA0B0153465A46B7
:10070000084313D0114653EA010019D0C8F1400242
:100710005046FFF7AEFF05460E4650465946424644
:10072000FFF798FF084305D0012004E02046394632
:10073000BDE8F08D0020054346EAE0762C433743C0
:100740000A986305E40AA0EB08000022FD0A44EAC7
:1007500047540A3002D500200146E9E70105101987
:100760006941DDE9084500196941BDE8F04DA2E79E
:10077000FEE7000030B5DFF894C08BB0224D0E9C30
:10078000CCF800500CF14005CCF830501C35CCF8BA
:1007900034500125CCF80430CCF81020CCE90240CC
:1007A00000246046CCE90514CCF81C40CCE908458F
:1007B000CCF82840CCF82C4000F014FD00281EBFD7
:1007C00001200BB030BD47F62050002100904FF4BF
:1007D000706001904FF4825002904FF44070CDE968
:1007E00003040E20059406940794CDE908500748A9
:1007F00000F0E4FD0548694600F086FB002818BFBC
:1008000002200BB030BD0000006400401004022044
:10081000014800F005BC000010040220134B4FF00B
:10082000640C70B500221C6B0029C4F800C01C6B5E
:1008300062601C6BA2601C6BE260D3F830C0CCF825
:1008400010100AD91C6B02F1140510F802C0521CDA
:1008500092B2914204F805C0F4D804480A2100F08D
:10086000F3FD002818BF012070BD00001004022015
:1008700070B59FED330B192805461BD01A2D02D0F9
:100880001B2D3DD03AE00B88488801EE103AB8EEB7
:10089000411B21EE001BB7EEC11B82ED041A01EED5
:1008A000100AB8EE411B21EE000BB7EEC00B82ED33
:1008B000030A23E0B1F800C04B8801EE10CAC988D2
:1008C000B8EE412B9FED201B22EE012BB7EEC22B81
:1008D00082ED002A02EE103AB8EE422B22EE011B06
:1008E000B7EEC11B82ED011A01EE101AB8EE411BE2
:1008F00021EE000BB7EEC00B82ED020A284670BD58
:100900000C8800EE104A14F0010FB8EE400A82ED98
:10091000050A1CBF0EA009F059F914F0020F1CBF04
:100920000EA009F053F914F0040F1CBF0EA009F03B
:100930004DF914F0080F1CBF0EA009F047F9DDE7D0
:100940009A9999999999B93F7B14AE47E17A843F76
:10095000CAE4B3F6C7B7D1B900000000CAE4B3F6E1
:10096000B9FDD1B900000000CAE4B3F6B9FDC1F782
:1009700000000000CAE4B3F6B9FDCEC200000000DA
:1009800010B503684FF4D87202EB01129B5813F0B4
:10099000040C436BC3F808C0D0F800C0436B5CF88C
:1009A00002C007BF4FEA5C5CC3F800C04FEADC0C32
:1009B000C3F804C003689A58436B02F00202DA607D
:1009C0004FF4DA72036802EB01129B58D0F834C07E
:1009D00003F00F03CCF8103003689A58436BC2F34E
:1009E0000722DA614FF4DC72036802EB01129B58B4
:1009F000D0F834C08CF8143003689B58D0F834C059
:100A00001B0A8CF8153003689B58D0F834C01B0CB7
:100A10008CF8163003689A58436B120EDA754FF44F
:100A2000DE72036802EB01129B58D0F834C08CF8D8
:100A3000183003689B58D0F834C01B0A8CF8193062
:100A400003689B58D0F834C01B0C8CF81A3003682C
:100A50009A58436B120EDA762022002901680CBFE7
:100A6000CA600A6101684A690CBF22F0020222F0E2
:100A700010024A6190F83810222904D101684A69AD
:100A800022F40F424A6190F8381032290CBF12212B
:100A9000012180F8381000F0BFFC002010BD0000DC
:100AA00070B4BFF34F8FBFF36F8F1A4900200860F7
:100AB000194D296841F400312960BFF34F8FBFF30E
:100AC0006F8F16490860BFF34F8F081F006843F609
:100AD000FF76134AC0F34E3CC0F3C90406EA4C113A
:100AE000204641EA80731360401EFAD2BCF1010C2B
:100AF000F4D2BFF34F8F286840F480302860BFF3F2
:100B00004F8FBFF36F8F0748016841F00401016008
:100B100070BC704750EF00E014ED00E084ED00E0A1
:100B200060EF00E09CEF00E010B51F202DED028B80
:100B3000B0EE608A00F010F8642009F0CBFC1E20B3
:100B4000B0EE480A00F008F8BDEC028B6420BDE866
:100B5000104009F0BFBC00004DF804ED83B0002147
:100B60009FED1C1A00911F28F2EE040A01918DF8E6
:100B7000000002D01E281CD014E010EE100A164906
:100B80008842A8BFB3EE040A04DAB5EEC00AF1EE5B
:100B900010FA1BD920EE200ABCEEC00A10EE100A93
:100BA0008DF8020008216846FFF738FE03B05DF8B3
:100BB00004FB10EE100A09498842A8BF9FED080AFD
:100BC000E8DAB5EEC00AF1EE10FAE3D8B0EE410A69
:100BD000E0E70000000000000000A0410000CC4160
:100BE0000000CC4170470000B3F5804F30B418BF0F
:100BF0006FF0704104D040F8221030BC00207047E4
:100C000050F82230DFF824C08D8903EA0C03D1E9C3
:100C100000C44CEA041C8C688969240244EA054437
:100C20004CEA040C4CEA01011943E4E70000F0CF60
:100C300070B4D1F800C050F82C201B4BD1E90356FA
:100C40001A40D1E9014335431C432C434D692C43E1
:100C50008D692C43CD692C430D6A2C434D6A2C437E
:100C60008D6A2C43CD6A2C430D6B2C438D6B2C432A
:100C70004D6B2C432243082B08BF42F0400240F842
:100C80002C200A6BB2F5801F05D10A684AB10268B0
:100C900042F4801202600A681AB10268496B11437B
:100CA000016070BC002070478004C0FF00EB82022E
:100CB00070B453684FF07E46D1E900C48D8903F0CB
:100CC00040434CEA041C8C68240244EA05440D8A23
:100CD0004CEA0404DFF834C00CEB05552C430D7DC1
:100CE00006EB05652C438D692C4323435360026852
:100CF00012F4801F07D04268098A22F470020CEBBC
:100D000001511143416070BC002070470000F0FFAA
:100D10002DE9F04104004FF0000504BF0120BDE8BB
:100D2000F0815A4F206C002628B96664204684F86A
:100D30003C6000F0B1F8206C10F0100F18BF0125D6
:100D400004D0284684F83C60BDE8F081206C20F493
:100D5000885040F0020020644D48D0F8041321F47C
:100D60004031C0F80413D0F8041362681143C0F88E
:100D700004132068416821F4807141602068416853
:100D8000226941EA022141602068416821F04071F6
:100D9000416020684168A268114341602068816811
:100DA00021F40061816020688168E26811438160FC
:100DB000A06AB8422068816821F070618160206873
:100DC000816808BF21F040510BD0A26A11438160B5
:100DD0002068816821F04051816020688168E26A62
:100DE000114381602068816821F0020181602068E0
:100DF0008168A26941EA42018160206A0028206876
:100E0000416808BF21F4006113D041F400614160E2
:100E10002068416821F460414160206842684FF4D5
:100E20006043616A93FAA3F3491EB3FA83F39940CE
:100E3000114341602068C16A21F47001C1622068D9
:100E4000C16AA28B134B03EB02521143C1622068AB
:100E5000816821F40071816020688168226B41EA19
:100E6000422181602068816821F48061816020686E
:100E70008168626941EA822181606664206C20F0A9
:100E8000020040F0010020645BE700000100000F59
:100E9000002001400000F0FF174870B586B00168DF
:100EA00041F4807101600068144C00F4807005907A
:100EB000206840F001002060206803250026694674
:100EC00000F00100059051200296CDE900050C4884
:100ED00000F0B0FB206840F0040020602068694604
:100EE000029600F0040005902220CDE90005054897
:100EF00000F0A0FB06B070BD44380240303802401C
:100F000000000240000802400A7D012303FA02F2B9
:100F100003684048834218BF3F48D0F8003243F08E
:100F20000103C0F80032D0F8003223F47C53C0F83B
:100F30000032D0F80032D1F824C043EA0C23C0F8C4
:100F40000032D0F81C329343C0F81C32CB69D3B9BD
:100F5000D0F80C329343C0F80C32B1F80CC04B6897
:100F60006CF31F43D1F814C000EBCC0CCCF840322A
:100F7000B1F808C00B686CF31F43D1F814C000EB44
:100F8000CC0CCCF84432CB69012B1AD1D0F80C32FE
:100F90001343C0F80C32B1F800C04B686CF31F4328
:100FA000D1F814C000EBCC0CCCF84032B1F808C03A
:100FB000CB686CF31F43D1F814C000EBCC0CCCF819
:100FC00044328B69002BD0F804320CBF9343134397
:100FD000C0F804320B6923B9D0F814329343C0F837
:100FE00014320B69012B04D1D0F814321343C0F82A
:100FF0001432096A012904D1D0F81C121143C0F837
:101000001C12D0F8001221F00101C0F800120020DB
:10101000704700000034004000640040704700004A
:1010200070B50168044648694FF0010510F0010FE2
:1010300031D08868684A32EA00000CBF01230023DF
:101040008868664A32EA00000CBF012000208A68E6
:10105000DFF88CC13CEA02020CBF012200221843D7
:10106000104318D04A69204622F001024A6194F8E0
:101070003810122904D101684A6922F40F424A61EA
:1010800090F83810322906BF222180F8381080F8F5
:10109000385000F0BBFA2068C168406911F0030FB6
:1010A000C0F3400018BF002804D04FF000012046D4
:1010B000FFF766FC20680169406911F0030FC0F377
:1010C000001018BF002804D04FF001012046FFF7A0
:1010D00057FC20688169426911F0010F4369C2F32E
:1010E0000022C3F3C0331CBF002A002B03D0E16BE6
:1010F00041F00101E16381694269C1F34001436943
:10110000C2F340220029C3F3C0331CBF002A002BC6
:1011100003D0E16B41F00201E1638169C1F3800218
:101120004169C1F380234169002AC1F3C0311CBF6A
:10113000002B002903D0E16B41F00401E1638169D8
:1011400011F0700F0CBF012100214269C2F3C023CE
:101150004269C2F3C03289BB002B18BF002A2DD0D0
:10116000816901F07001402904BFE16B41F0400149
:101170001FD012DC102904BFE16B41F0080118D028
:10118000202904BFE16B41F0100112D0302904BFC7
:10119000E16B41F020010CD00CE0502904BFE16B61
:1011A00041F0800105D0602904BFE16B41F48071FA
:1011B00000D1E163816921F070018161E06B002859
:1011C00008BF70BD04202168486084F8385020466C
:1011D000FFF724FF70BD00000300000400030008B7
:1011E000000003102DE9F04104004FF0000704BF98
:1011F0000120BDE8F08194F83800002620B920468F
:1012000084F8396000F09EF8022084F838002068E5
:10121000016821F0020101602068016841F00101CC
:10122000016000F037FB0546206840684FF0030876
:1012300010F0010F09D100F02DFB401B0A2862D8E5
:101240002068406810F0010FF5D02068416811F067
:10125000010F69D0A169012901680CBF41F080012B
:1012600021F080010160E0690128206801680CBF5D
:1012700041F0400121F040010160206A012820680E
:1012800001680CBF41F0200121F020010160606A7B
:101290000128206801680CBF41F0100121F0100105
:1012A0000160A06A0128206801680CBF41F00801B4
:1012B00021F008010160E06A0128206801680CBF84
:1012C00041F0040121F004010160D4E90201084366
:1012D000D4E90412114308436168491E0843216898
:1012E000C8612068016821F00101016000F0D2FAB4
:1012F00005462068406810F0010F10D000F0CAFACF
:10130000401B0A2806D984F83880032084F8396005
:10131000BDE8F0812068406810F0010FEED1206830
:10132000406810F0010F00D037B1E663012084F867
:1013300038000020BDE8F081042084F83800012046
:10134000BDE8F08119484DF804ED87B0016841F01F
:1013500000710160006800F0007005901448016899
:1013600041F0010101600068012100F001000590D9
:101370004FF4C05000900220CDE9010103900920F4
:10138000049069460B4800F055F90B480068416924
:1013900041F00201416102221420114600F068FC74
:1013A000142000F058FC07B05DF804FB4038024000
:1013B00030380240000002401004022090F838202B
:1013C000012A18BF122A24D190F83920012A20D0EE
:1013D000012280F8392090F83820122A0CBF3222DE
:1013E000222280F838200023C3630268D2F814C098
:1013F0004CF40F4CC2F814C080F839300029006852
:1014000041690CBF41F0020141F01001416100202F
:101410007047022070470000084910B5086842690B
:1014200042F002024261486B054A00F11401007863
:10143000FFF71EFA0349087010BD000010040220D7
:1014400090040220340002202DE9F05F0268044677
:101450000E46906810F0806F01BF906810F0006F2A
:10146000906810F0805F7DD094F83900012804BFA7
:101470000220BDE8F09F012084F8390094F838007C
:1014800022280CBF3220122084F83800906810F017
:10149000806F18BF002571D04FF4C07000EB0510AD
:1014A000115801F001011150216B8A68002A6CD09B
:1014B000236853F800C04CEA0202D1F80CC0496816
:1014C0004CEAC10111431950216B0A7C02F00F0252
:1014D0000A6122684FF4C27101EB0511535823F0E1
:1014E0000F03535022685358D4F830C0DCF810C0B2
:1014F00043EA0C035350216B4FF4C47303EB051301
:101500000A7DD1F8151042EA01212268D150216BE1
:101510004FF4C67303EB05130A7ED1F8191042EAA3
:1015200001212268D15021680A5842F001020A5074
:1015300000F0B0F9DFF8C8800746DFF8C8904FF038
:10154000000BDFF8C4A05DB32068012D80682DD0AA
:101550003AEA000036D0B6F1FF3F2BD03EB100F0A2
:1015600099F901E045E009E0C01BB04222D903200F
:1015700084F8380084F839B0BDE8F09F906810F026
:10158000006F14BF0125022586E722681358D1F8A1
:101590000CC0098843EA0C0343EA4151115093E718
:1015A0002068806838EA0000D5D10BE039EA0000F5
:1015B000D1D107E09DB12068012D806815D03AEAAD
:1015C0000000C8D194F8380032280CBF2220012036
:1015D00084F83800002084F839B0BDE8F09F206816
:1015E000806838EA0000B6D1ECE739EA0000B2D1F1
:1015F000E8E7042084F838000120BDE8F09F0000EF
:10160000030000040003000800000310704790F876
:101610003510022903D08021416501207047052142
:1016200080F835100068016821F001010160002098
:10163000704700002DE9F84FDFF830920022DFF804
:1016400028820F2709F1040A4FF0010E0B680EFAE9
:1016500002F52B40AB4240F00181D1F804C0BCF14F
:10166000020F18BFBCF1120F15D14FEAD20C00EBDC
:101670008C0CDCF820604FEA42744FEAD46407FA1D
:1016800004FB26EA0B06D1F810B00BFA04F444EA86
:101690000604CCF8204006684FEA420C91F804B0EA
:1016A0004FF003040BF0030B04FA0CF40BFA0CFBE1
:1016B00026EA04064BEA060606604E68012E18BFAD
:1016C000022E03D0112E18BF122E14D18668D1F825
:1016D0000CB026EA04060BFA0CFB4BEA0606866001
:1016E000466826EA05050E79C6F3001606FA02F6E4
:1016F00046EA05054560C56825EA04048D6805FAD3
:101700000CFC4CEA040CC0F80CC0D1F804C01CF06E
:10171000805F7CD0D8F800C04CF4804CC8F800C082
:10172000D8F800C00CF4804CCDF800C022F0030CB7
:101730000CF1804505F59835D5F808C84FEA827454
:101740004FEA147407FA04F62CEA0606A0F1804C5E
:10175000BCF5003C48D0A0F1804CBCF5013C08BF72
:101760004FF0010C40D0A0F1804CBCF5023C08BF0A
:101770004FF0020C38D0A0F1804CBCF5033C08BF00
:101780004FF0030C30D0A0F1804CBCF5043C08BFF6
:101790004FF0040C28D0A0F1804CBCF5053C08BFEC
:1017A0004FF0050C20D0A0F1804CBCF5063C08BFE2
:1017B0004FF0060C18D0A0F1804CBCF5073C08BFD8
:1017C0004FF0070C10D0A0F1804CBCF5083C08BFCE
:1017D0004FF0080C08D0A0F1804CBCF5093C0CBFC0
:1017E0004FF0090C4FF00A0C0CFA04FC4CEA060C02
:1017F000C5F808C8D9F800C04C682CEA030C14F4EA
:10180000803F18BF4CEA030CC9F800C000E025E097
:10181000DAF800C04C682CEA030C14F4003F18BF3F
:101820004CEA030CCAF800C0114CD4F800C04D6853
:101830002CEA030C15F4801F18BF4CEA030CC4F803
:1018400000C00C4CD4F800C04D682CEA030C15F411
:10185000001F18BF4CEA030CC4F800C0521C102A29
:10186000FFF4F4AEBDE8F88F44380240003C01407C
:10187000083C01400C3C01400069084018BF0120B1
:1018800070474269514041617047002A08BF09040E
:101890008161704701480068704700001C00022009
:1018A00002480168491C0160704700001C000220CA
:1018B000074810B5016841F400710160052000F08F
:1018C00009FA0F2000F006F800F0C4F9002010BD5E
:1018D000003C024010B5044607484FF47A72006895
:1018E000B0FBF2F001F088F900222146501E00F012
:1018F000BFF9002010BD0000000002202DE9F05FBC
:10190000044690F8A000012804BF0220BDE8F09F23
:101910000125022084F8A05084F8A10002EB820087
:1019200000EBC20004EB8003B1E8C11F3833A3E829
:10193000C11F91E8C111203983E8C111204607F089
:101940001FFC2068456284F8A150002084F8A000A4
:10195000BDE8F09F002804BF0120704770B5044621
:1019600090F8A100002520B9204684F8A05000F08E
:1019700077F8022084F8A1002068816921F0704185
:101980008161D4E901010843D4E903121143014301
:101990002068826911438161206882682F490A406A
:1019A0008260A08A020420688368D4F818C043EAE1
:1019B0000C031A4382602068C2680A40C260A08B90
:1019C00002042068C368D4F820C043EA0C031A4319
:1019D000C260206802690A400261A08C020420688B
:1019E0000369D4F828C043EA0C031A430261206853
:1019F000426911404161A08D010420684269236B56
:101A00001A431143416194F83500020294F83600FC
:101A100001042068C36A03F07F43C3622068C36A7D
:101A2000114394F834C043EA0C031943C16220689F
:101A3000416B41F0040141632068416B41F00201B8
:101A400041632068816941F001018161C4F8A450BB
:101A5000012084F8A100002070BD000000F800F013
:101A6000354810B586B0016841F0806101600068BA
:101A700000F0806005903148016841F40001016088
:101A8000016801F400010591016841F00201016063
:101A9000016801F002010591016841F02001016037
:101AA000016801F020010591016841F040010160E9
:101AB000016801F040010591016841F08001016079
:101AC000016801F080010591016841F480710160B5
:101AD00000680324694600F480700590202000907F
:101AE00001200190CDE902041548FFF7A3FD4FF452
:101AF000806000900220019000206946CDE9020438
:101B00000E2004900F48FFF795FD4FF40C600090F5
:101B10000D486946FFF78EFD4FF47E4000900B485C
:101B20006946FFF787FD40F2F76000900848694674
:101B3000FFF780FD06B010BD443802403038024047
:101B4000000402400014024000180240001C024041
:101B50000020024070B5044690F8A0008C46012891
:101B600004BF022070BD0125022084F8A05084F833
:101B7000A10003EB830000EBC30004EB800000F145
:101B80003801C0F838C0006E6044C1E90102C86A7B
:101B900010441A46C860204607F0F2FA20684562F1
:101BA00084F8A150002084F8A00070BD70B50446F0
:101BB00090F8A0008C46012804BF022070BD0125CA
:101BC000022084F8A05084F8A10003EB830000EB0E
:101BD000C300002604EB800000F138012046C1E973
:101BE000006CC1E90262C1E90AC21A4607F0C8FAEC
:101BF0002068456284F8A150002084F8A06070BD80
:101C0000134A41781160111D03780A1D002B04BF8F
:101C1000002008601AD043680B60017BC37A090773
:101C200041EA0361837A41EAC341437B41EA83414C
:101C3000837B41EA4341C37B41EA0341437A41EA62
:101C40000321037A007841EA43010843106070479A
:101C500098ED00E07047012200F01F0102FA01F147
:101C60004009800000F1E020C0F80011704700003A
:101C7000174B4DF8044D1B68C3F30223C3F1070C47
:101C8000BCF1040F88BF4FF0040C1C1D072C34BF9F
:101C90000023DB1E012404FA0CFCACF1010C0CEA5D
:101CA0000101994004FA03F35B1E1A401143002816
:101CB0004FEA0111B8BF00F00F0000F1E020B4BFFF
:101CC00080F8141D80F800145DF8044B7047000084
:101CD0000CED00E0074A00F0070011684FF6FF0323
:101CE000194041EA002040F0FD7040F08060106033
:101CF000704700000CED00E01C4838B5016841F069
:101D00008051016000681A4C00F0805000902068FB
:101D100040F480302060FFF7BDFD0546606810F498
:101D2000803F09D1FFF7B6FD401BB0F57A7F14D88C
:101D3000606810F4803FF5D0206840F400302060E7
:101D4000FFF7A8FD0546606810F4003F0BD1FFF7D0
:101D5000A1FD401BB0F57A7F01D9032038BD606832
:101D600010F4003FF3D0002038BD0000403802409E
:101D7000007000402DE9F84F04460078DFF82C94FD
:101D80004FF0000B10F0010F5D4610D0D9F80000A5
:101D900020F40000C9F80000D9F80000616B084386
:101DA000C9F80000606B002808BF4FF0010B2068E5
:101DB000FF4E10F4002F0FD03068E16B20F440107C
:101DC00008433060E06BB0F5801F08BF4FF0010B97
:101DD00002D0002808BF0125206810F4801F0FD012
:101DE0003068216C20F4400008433060206CB0F56E
:101DF000800F08BF4FF0010B02D0002808BF01255B
:101E0000206810F0807F18BF4FF0010B10F0200FFA
:101E100071D0E848016841F0805101600068DFF846
:101E2000988300F080500090D8F8000040F4807053
:101E3000C8F80000FFF72EFD0746D8F8000010F4A0
:101E4000807F0AD1FFF726FDC01B642800F2308393
:101E5000D8F8000010F4807FF4D0DFF86083D8F861
:101E6000000010F4407031D0218E01F440718142A5
:101E70002CD0D8F80000D8F8001020F4407041F4BD
:101E80008031C8F80010D8F8001021F48031C8F86B
:101E90000010C8F80000D8F8000010F0010F15D0AD
:101EA000FFF7F8FC0746D8F8000010F0020F08BF53
:101EB00041F2883A0AD1FFF7EDFCC01B504500F211
:101EC000F782D8F8000010F0020FF4D0206B4FF426
:101ED000407181431CBFD9F8000020F4F81000F0D5
:101EE000EE80C9F80000D8F80000218EC1F30B0184
:101EF0000843C8F80000207810F0100F07D03068B1
:101F000020F0807030603068A16B0843306020881A
:101F100010F4804FAA4805D00168626E21F4403168
:101F200011430160218811F4004F05D00168A26EB1
:101F300021F4402111430160216811F4803F05D054
:101F40000168E26E21F4401111430160216811F42F
:101F5000003F05D00168226F21F440011143016068
:101F6000217811F0400F05D00168626C21F0030167
:101F700011430160217811F0800F05D00168A26C37
:101F800021F00C0111430160218811F4807F05D0FC
:101F90000168E26C21F0300111430160218811F4E5
:101FA000007F05D00168226D21F0C001114301605E
:101FB000218811F4806F05D00168626D21F44071B1
:101FC00011430160218811F4006F05D00168A26DF2
:101FD00021F4406111430160218811F4805F05D034
:101FE0000168E26D21F4405111430160218811F430
:101FF000005F05D00168226E21F440411143016069
:10200000216811F4800F05D00168A26F21F0806172
:1020100011430160216811F4001F0AD00168E26FCA
:1020200021F0006111430160E16FB1F1006F08BF61
:102030000125216811F0080F18BF012511F4802F28
:1020400005D00168626F21F0407111430160216881
:1020500011F4000F06D00168D4F8802021F08051DF
:1020600011430160216811F0806F06D00168D4F837
:10207000842021F0005111430160206810F0006FAE
:1020800006D03068D4F8881020F000700843306023
:10209000206810F0805F06D03068D4F88C1020F0F3
:1020A000806008433060BBF1000F47F6C07A4FF400
:1020B00040374FF070684FF0E0490ED109E0D9F891
:1020C000001020F4407020F0704021F4F811084313
:1020D00007E72068B0F1007F67D13A48006820F038
:1020E000806138480160FFF7D5FB834635480068BA
:1020F00010F0006F0BD0FFF7CDFBA0EB0B006428B6
:1021000000F2D6812F48006810F0006FF3D12078DC
:1021100010F0010F2C482DD0616B59BB016897FA64
:10212000A7F201F44031B2FA82F2D140026898FA83
:10213000A8F39AFAAAFC02F07062B3FA83F3BCFA2D
:102140008CFCDA40636803FA0CF397FAA7FCBCFA3C
:102150008CFC01FA0CF1194398FAA8F3B3FA83F353
:102160009A4099FAA9F30A43A168B3FA83F3994014
:1021700011430160216811F4002F03D0E26BB2F526
:10218000801F06D011F4801F49D0216CB1F5800F5B
:1021900045D1016897FAA7F201F44031B2FA82F210
:1021A000D140026802F0E04210E0A5E008380240A9
:1021B0008C380240403802400070004070380240C5
:1021C00090380240003802408438024099FAA9F35E
:1021D0009AFAAAFCB3FA83F3BCFA8CFCDA4063687F
:1021E00003FA0CF397FAA7FCBCFA8CFC01FA0CF189
:1021F00098FAA8FC1943E368BCFA8CFC03FA0CF3C8
:10220000194399FAA9F3B3FA83F39A401143016091
:102210003168626A21F01F01521E1143316021684A
:1022200011F0807F2ED0016898FAA8F201F0706159
:10223000B2FA82F2D140026899FAA9F39AFAAAFC9A
:1022400002F0E042B3FA83F3BCFA8CFCDA40636834
:1022500097FAA7FBBBFA8BFB03FA0CF3D4F810C078
:102260000CFA0BFC43EA0C0398FAA8FCBCFA8CFCB1
:1022700001FA0CF1194399FAA9F3B3FA83F39A40DE
:1022800011430160216811F0007F1CD09AFAAAF274
:10229000616897FAA7F3B2FA82F2B3FA83F301FA0C
:1022A00002F22169994098FAA8F31143E268B3FA5F
:1022B00083F39A4099FAA9F31143A268B3FA83F31E
:1022C0009A40114301607F48006840F080617D487A
:1022D0000160FFF7DFFA83467A48006810F0006F6C
:1022E0000AD1FFF7D7FAA0EB0B0064287DD8754818
:1022F000006810F0006FF4D0002D77D0714D286881
:1023000020F080502860FFF7C5FA8346286810F057
:10231000005F09D0FFF7BEFAA0EB0B00642864D879
:10232000286810F0005FF5D12068DFF89CC110F438
:10233000002F01D0E16B21B110F4801F38D0206C48
:10234000B0BBDCF8000097FAA7F100F44030B1FA16
:1023500081F1C840DCF8001099FAA9F29AFAAAF3C0
:1023600001F0E041B2FA82F2B3FA83F3D14062693C
:102370009A4097FAA7F3B3FA83F3984098FAA8F330
:102380001043A269B3FA83F39A40104399FAA9F271
:10239000B2FA82F291400843CCF8000030686FF046
:1023A000FF02A16A20F4F85002EB012108433060DB
:1023B000206810F4001F34D0E06FB0F1006F30D10E
:1023C000DCF8000098FAA8F100F07060B1FA81F131
:1023D000C840DCF8001099FAA9F29AFAAAF301F0C1
:1023E000E041B2FA82F2D14001E061E067E0626967
:1023F000B3FA83F397FAA7FB9A40236ABBFA8BFBE5
:1024000003FA0BF31A4398FAA8F3B3FA83F398404C
:10241000104399FAA9F2B2FA82F291400843CCF83B
:102420000000207810F0080F32D0DCF8000098FA95
:10243000A8F100F07060B1FA81F1C840DCF800103A
:1024400097FAA7F29AFAAAF301F44031B2FA82F2AB
:10245000B3FA83F3D14062699A4097FAA7F3B3FACB
:1024600083F39940114398FAA8F2B2FA82F29040AD
:1024700099FAA9F20843E169B2FA82F2914008435D
:10248000CCF800003068E16A20F440300843306046
:10249000286840F080502860FFF7FCF9044628685F
:1024A00010F0005F0BD1FFF7F5F9001B642802D98B
:1024B0000320BDE8F88F286810F0005FF3D00020FB
:1024C000BDE8F88F00380240883802402DE9F04717
:1024D000DFF8688104460D46D8F8000000F00F00D0
:1024E000A8420CD2D8F8000020F00F002843C8F80A
:1024F0000000D8F8000000F00F00A84270D120784A
:102500004F4F10F0020F05D03868A16820F0F0009E
:1025100008433860207810F0010F4ED060684949B8
:10252000012820D00968022822D011F0020F57D0CC
:10253000396821F0030108433860FFF7ABF906461C
:10254000606841F28839012816D00228386800F006
:102550000C0021D0F8B1FFF79DF9801B484528D920
:102560000320BDE8F087096811F4003FE0D137E0AF
:1025700011F0007FDCD133E0386800F00C00042853
:102580001BD0FFF787F9801B4845E9D8386800F071
:102590000C000428F5D110E008280ED0FFF77AF9D6
:1025A000801B4845DCD8386800F00C000828F5D1BD
:1025B00003E0386810F00C0FCDD1D8F8000000F01F
:1025C0000F00A8420FD9D8F8000020F00F002843D0
:1025D000C8F80000D8F8000000F00F00A84202D0B0
:1025E0000120BDE8F087207810F0040F05D038688E
:1025F000E16820F4E05008433860207810F0080FBC
:1026000006D03868216920F4604040EAC100386093
:1026100000F04EF83968F02292FAA2F201F0F001CF
:10262000B2FA82F2D140084A515CC84007490860BA
:102630000F20FFF74FF90020BDE8F087003C024073
:10264000083802400038024090A80008000002202C
:1026500008480949006809684FF4E05292FAA2F26A
:1026600001F4E051B2FA82F2D140044A515CC84010
:10267000704700000000022008380240A0A80008AF
:1026800008480949006809684FF4604292FAA2F2CA
:1026900001F46041B2FA82F2D140044A515CC84070
:1026A000704700000000022008380240A0A800087F
:1026B0002148006810F00C01204808BF7047DFF87F
:1026C00080C0042904BF60467047082918BF7047BE
:1026D0004DF8044D1B4A1168136801F03F0113F4D3
:1026E000800F47F6C0730BD0BCFBF1F011681940A6
:1026F00093FAA3F3B3FA83F3D94000FB01F00AE0A5
:10270000B0FBF1F01168194093FAA3F3B3FA83F325
:10271000D94000FB01F011684FF440325DF8044BE2
:1027200092FAA2F201F44031B2FA82F2D140491C8D
:102730004900B0FBF1F07047083802400024F40073
:1027400040787D01043802402DE9F84FDFF8A88376
:1027500004460078A8F1040710F0010FA7F1040562
:102760005AD0D8F8000000F00C00042809D0D8F89E
:10277000000000F00C0008280CD1386810F4800F1D
:1027800008D0286810F4003F46D06068002800F0A8
:10279000AF8141E06068B0F5803F04BF286840F435
:1027A00080300AD010B1B0F5A02F11D0286820F4E5
:1027B00080302860286820F4802028606068D0B1CC
:1027C000FFF768F80646286810F4003F08D023E0B9
:1027D000286840F480202860286840F48030ECE7C6
:1027E000FFF758F8801B642800F22581286810F450
:1027F000003FF5D010E0FFF74DF80646286810F4CA
:10280000003F09D0FFF746F8801B642800F21381CF
:10281000286810F4003FF5D1207810F0020F50D056
:10282000D8F800004FF0F80910F00C0F18D0D8F8C5
:10283000000000F00C00082804BF386810F4800F76
:102840000ED0E0680028286828D040F001002860F9
:10285000FFF720F80646286810F0020F09D011E0B3
:10286000286810F0020F1CBFE06801280AD000F0B1
:102870003FB9FFF70FF8801B02287DD8286810F0B9
:10288000020FF6D0286899FAA9F22169B2FA82F209
:1028900020F0F80091400843286012E020F0010089
:1028A0002860FEF7F7FF0646286810F0020F08D0F0
:1028B000FEF7F0FF801B02285ED8286810F0020F98
:1028C000F6D1207810F0080F33D0DFF8309260692D
:1028D0000028D9F8000016D040F00100C9F8000027
:1028E000FEF7D8FF0646D9F8000010F0020F20D1FD
:1028F000FEF7D0FF801B02283ED8D9F8000010F068
:10290000020FF5D015E020F00100C9F80000FEF735
:10291000C1FF0646D9F8000010F0020F09D0FEF7FB
:10292000B9FF801B022827D8D9F8000010F0020F49
:10293000F5D1207810F0040F63D07148016841F0A0
:102940008051016000686F4E00F080500090306848
:1029500040F480703060FEF79DFF8146306810F4CF
:10296000807F0BD1FEF796FFA0EB0900642862D8A8
:10297000306810F4807F00E05DE0F3D0A068624E24
:10298000012804BF306840F0010009D008B10528D3
:1029900013D0306820F001003060306820F004006F
:1029A0003060A06841F2883AD0B1FEF773FF8146EB
:1029B000306810F0020F08D023E0306840F00400C7
:1029C0003060306840F00100EAE7FEF763FFA0EBFB
:1029D000090050452FD8306810F0020FF5D010E0F4
:1029E000FEF758FF8146306810F0020F09D0FEF75D
:1029F00051FFA0EB090050451DD8306810F0020FC0
:102A0000F5D1A069E8B3D8F8001001F00C0108294D
:102A10006ED00228286820F0807028600ED0FEF763
:102A200039FF0446286810F0007F5ED0FEF732FFC1
:102A3000001B022855D90320BDE8F88FFEF72AFFB6
:102A40000646286810F0007F08D0FEF723FF801BA1
:102A50000228F0D8286810F0007FF6D1D4E90701E9
:102A600047F6C0724FF0FF3392FAA2F20843616A50
:102A7000B2FA82F29140A26A03EB52024FF4403361
:102A800000E032E093FAA3F3B3FA83F39A401143E0
:102A90004FF070620843E16A92FAA2F2B2FA82F24F
:102AA00091404FF0E0420843216B92FAA2F2B2FA51
:102AB00082F2914008433860286840F080702860B6
:102AC000FEF7E8FE0446286810F0007F0DD1FEF7FF
:102AD000E1FE001B0228AED8286810F0007FF6D077
:102AE00003E0286810F0007FA0D10020BDE8F88F37
:102AF0000120BDE8F88F0000083802407438024019
:102B0000403802400070004070380240002804BF86
:102B10000120704770B5044690F8450015460E46F2
:102B200028B9002084F84400204600F01BF82068F3
:102B300004F10801FEF77CF8A26831462068FEF730
:102B4000B5F8E36A2946D4E90102FEF74DF8A16819
:102B5000206850F8212042F0010240F82120002096
:102B600070BD00001A484DF804ED87B0016841F0CF
:102B700001010160006800F001000590154801683E
:102B800041F008010160016801F008010591016848
:102B900041F0100101600068694600F010000590E6
:102BA0004EF2B370009002200190012002900320A9
:102BB00003900C2004900848FEF73CFD4FF680700F
:102BC000009006486946FEF735FD07B05DF804FB46
:102BD0003838024030380240000C024000100240F9
:102BE0004FF0E021042808690CBF40F0040020F0F9
:102BF0000400086170470000401EB0F1807F24BFD0
:102C0000012070474FF0E0214861F020044A82F82B
:102C1000140D002088610720086100207047000023
:102C20000FE000E070477047002804BF01207047A4
:102C300010B5044690F83900002804BF204600F083
:102C40000DF8022084F839002068211D06F086FC6A
:102C5000012084F83900002010BD000038B504467A
:102C60000068164DA0F18041B1F580610FD1286850
:102C700040F002002860286800220A2100F00200CB
:102C800000901D20FEF7F4FF1D20FEF7E4FF2068F2
:102C9000B0F1804F18BF38BD286840F001002860AF
:102CA00028680022082100F0010000901C20FEF797
:102CB000DFFFBDE838401C20FEF7CDBF40380240A2
:102CC0000168CA6842F00102CA600068016841F008
:102CD0000101016000207047704770B5044600682C
:102CE00001694FF0000511F0020F1CBFC16811F01F
:102CF000020F13D06FF002010161012020762068DD
:102D0000806910F0030F204602D0FFF7E5FF04E0D2
:102D100000F0A6F8204600F0A4F8257620680169A6
:102D200011F0040F1CBFC16811F0040F13D06FF035
:102D300004010161022020762068806910F4407F40
:102D4000204602D0FFF7C8FF04E000F089F82046D3
:102D500000F087F825762068016911F0080F1CBF84
:102D6000C16811F0080F13D06FF008010161042051
:102D700020762068C06910F0030F204602D0FFF7CC
:102D8000ABFF04E000F06CF8204600F06AF825760E
:102D90002068016911F0100F1CBFC16811F0100FFD
:102DA00013D06FF010010161082020762068C069FF
:102DB00010F4407F204602D0FFF78EFF04E000F0C1
:102DC0004FF8204600F04DF825762068016911F093
:102DD000010F1CBFC16811F0010F05D06FF0010198
:102DE0000161204600F03EF8206801696FF080051F
:102DF00011F0800F1CBFC16811F0800F03D0056176
:102E00002046FFF70FFF2068016911F4807F1CBF87
:102E1000C16811F0800F03D005612046FFF702FF63
:102E20002068016911F0400F1CBFC16811F0400F0C
:102E300005D06FF040010161204600F025F82068C0
:102E4000016911F0200F1ABFC16811F0200F70BD89
:102E50006FF0200101612046BDE87040FFF7E3BE3E
:102E600070477047054B01220549984208BF4A70D8
:102E7000044B984208BF0A7070470000E00102202E
:102E8000200002201C0202207047704790F8691051
:102E900090F86A000843704770B501680446C86935
:102EA0000A688B6810F00F0F4FF0200551D040F2E8
:102EB000011C13EA0C0F7DD010F0010F18BF12F4A3
:102EC000807F07D04FF0010CC1F820C0E16E41F0C7
:102ED0000101E16610F0020F18BF13F0010F08D0D6
:102EE000D4F800C00221CCF82010E16E41F00401BA
:102EF000E16610F0040F18BF13F0010F08D0D4F8EA
:102F000000C00421CCF82010E16E41F00201E1661E
:102F100010F0080F0CD002F0200103F00103194358
:102F200006D0236808211962E16E41F00801E166CC
:102F3000E16E002908BF70BD10F0200F1EBF12F017
:102F4000200F204606F015FCE06E10F0080F10D19F
:102F50000AE010F0200F18BF12F0200F39D02046E1
:102F6000BDE8704006F005BC2068806810F0400F96
:102F700029D02068016821F490710160206881687F
:102F800021F00101816084F86A502068816811F0A5
:102F9000400F14D0816821F040018160606E70B1F3
:102FA0002F490165606EFEF732FB002808BF70BD37
:102FB000606E00E00DE0016DBDE8704008472046FE
:102FC000FFF763FF70BD2046FFF75FFF0020E0665C
:102FD00070BD10F0800F18BF12F0800F2FD094F842
:102FE0006900212818BF70BDB4F85200A0B1A068D4
:102FF000B0F5805F04BF20690028E06C16D000F1B6
:103000000101E164216800788862B4F85200A0F1FF
:103010000100A4F8520070BD086820F0800008602C
:103020002068016841F04001016070BD0088C0F374
:1030300008008862E06C00F10200E064E5E710F04F
:10304000400F14BF12F0400F70BD20460A6822F0F6
:1030500040020A6084F8695000F054F970BD000025
:103060005F970008002804BF0120704710B5044690
:1030700090F8690028B9002084F86800204600F024
:1030800029F8242084F869002068016821F00101F2
:103090000160204606F0AEFB012808BF10BD606A43
:1030A00000281CBF204606F0BDFA2068416821F4C4
:1030B000904141602068816821F02A018160206888
:1030C000016841F0010101602046BDE8104006F0B2
:1030D00016BB00002DE9F04304460068364D022679
:1030E000364FA0F18041B1F588314FF0010887B02B
:1030F0004FF0070929D1286840F0010028602868AE
:1031000000F0010005902E48016841F010010160B7
:1031100000686946CDE9028600F010000590681548
:10312000CDF81090CDE900063846FEF783FA281551
:10313000694600903846FEF77DFA2520FEF78BFDA4
:10314000032225201146FEF793FD2068A0F180415F
:10315000B1F588411CBF07B0BDE8F083286840F096
:1031600001002860286800F00100059015480168FA
:1031700041F40031016000686946CDE9028600F43F
:10318000003005900420CDF81090CDE900063846B7
:10319000FEF750FA0821384600916946FEF74AFAD0
:1031A0002620FEF758FD012202212620FEF760FDB1
:1031B00007B0BDE8F0830000303802400000024054
:1031C000443802404038024090F86A30202B49D100
:1031D000002912BF002A0120704790F86830012BA7
:1031E00040D0012380F868304165A0F85820A0F84D
:1031F0005A20FF228168B1F5805F05D07F2351B14D
:10320000B1F1805F0CD012E00169002908BF40F2E3
:10321000FF1102D109E0016909BBA0F85C2006E0BA
:103220000169002918BF3F2119D0A0F85C100021C6
:10323000C166222280F86A2080F8681001680A6856
:1032400042F480720A6001688A6842F001028A6072
:103250000068016841F02001016000207047A0F87B
:103260005C30E4E70220704770B501680024214D0E
:10327000A1F18042B2F5883204BF698811F4004F91
:103280001BD11C4A11F4804F127805D00A2A08BFBE
:1032900041F400412BD00FE00D2A08BF41F48041DA
:1032A00025D0DFF854C0C1F30D03491C89B2C729EA
:1032B0000CF80320698000D96C800168A1F180427C
:1032C000B2F5884218BF70BD416D491E41650B487B
:1032D0000E780221FEF7D5FA0949A8880E54401C41
:1032E000A88000F00F00072888BFAC8070BD6980FF
:1032F000E3E700000800022038000220000402403A
:103300000E0002207047FEE72DE9F047DFF8FC8051
:1033100082B0824699464FF47840144610260D46F6
:10332000C8F800003AA0C8223346CDE90060282042
:1033300005F048FC3BA02F19B9B2CDE9006010237D
:103340005046C82205F03EFC3AA0B9B21023CDE9A0
:103350000060C822484605F035FC39A005EB44075B
:10336000B9B2CDE9006010235046C82205F02AFC0E
:1033700037A0B9B21023CDE90060C822484605F055
:1033800021FC36A01023C822CDE9006004EB4400E4
:1033900047195046B9B205F015FC34A0B9B2102354
:1033A000CDE90060C822484605F00CFC32A005EBD0
:1033B0008407B9B2CDE9006010235046C82205F059
:1033C00001FC31A0B9B21023CDE90060C822484603
:1033D00005F0F8FB2FA01023C822CDE9006004EB14
:1033E000840044195046A1B205F0ECFB2DA0A1B217
:1033F0001023CDE90060C822484605F0E3FB4FF4F6
:10340000FC60C8F8000002B0BDE8F087240002208C
:103410004D6561737572656D656E74204469737076
:103420006C61790020556463696E203A2020202069
:10343000000000005564634F75743A20202020007E
:1034400020496463496E203A2020202000000000BB
:103450004964634F75743A20202020002054656D24
:103460006463203A20202020000000005761726E23
:1034700064633A202020200020506463496E203A83
:1034800020202020000000005064634F75743A2013
:1034900020202000202045666664633A20202020FA
:1034A00000000000202054696D653A202020200093
:1034B0002DE9F05F3D4C3E4DA071296839B105F012
:1034C00045FCE88A2080288B6080BDE8F09F374962
:1034D0002C232B254FF0F0094FF4305E49F2413A8E
:1034E0004FF448764FF02A0C89884FF4A0784FF4B7
:1034F000F07245F2105B45F2103760B1A4F800801D
:103500005145A4F8029018BFB9422ED12381A4F8E6
:103510000AC0A58140E0A4F800905145A4F80280BB
:1035200018BFB94209D12381B942A4F80AC0A581C4
:1035300004BFA4F80080628033E059450AD1A4F8A2
:1035400008E04FF4285060814FF42C50A081228075
:10355000668026E0A1F5C850633822D123816581B9
:10356000A4F80CC0228066801BE059450AD1A4F85B
:1035700008E04FF4285060814FF42C50A081268041
:10358000628009E0A1F5C850633805D12381A4F811
:103590000AC0A58126806280B94204BF2280A4F8B7
:1035A00002800020BDE8F05F04F092BF38030220E3
:1035B000F00302202DE9F34F012506462DED020B05
:1035C0002DED028BB0EE408A83B0BDEEC80A10EE3E
:1035D000104A002CB8BF6442092CC8BF0225632CD6
:1035E000C8BF0325B4F57A7FA8BF042542F20F7047
:1035F0008442C8BF05254FF0000AB5EEC08A06F127
:1036000028074FF01009F1EE10FA36A04FF0800BAA
:1036100030DBCDE9009006EBC506089906F12800DD
:1036200080B21023322205F0CDFAB8B20899CDE964
:10363000009A2B46224605F0F7FA00EE104ADFED1D
:103640002A0A06F130000899B8EEC00A80B20323B6
:10365000CDE9009B38EE400A20EE200ABCEEC00AFD
:1036600010EE102A05F0E0FA03B0BDEC028B04B0B6
:10367000BDE8F08FCDE9009006EBC508089908F188
:10368000300080B21023322205F09CFA17A008996E
:1036900010233222CDE90090B8B205F093FA06F17A
:1036A0003000089980B22B46CDE9009A224605F0F9
:1036B000BBFA00EE104ADFED0E0A08F13800089957
:1036C000B8EEC00A80B20323CDE9009B38EE000AB1
:1036D00020EE200ABCEEC00A10EE102A05F0A4FA73
:1036E000C2E700002E00000000007A442D00000018
:1036F00000007AC42DE9F84F934B1B681BB1BDE85D
:10370000F84F05F037BBDFF844A20C0ADFF840920F
:10371000CBB2D446070ABAF8045009F10206BCF845
:103720000C1000F0FF08BCF80AC0A5F5134BBBF164
:10373000410B1CBFA5F5A04BBBF5447B09D0A5F5FB
:10374000A04BBBF5A26B3DD0A5F5C857633F7CD01D
:10375000F2E0ADF800C0BDF80000ADF80000BDF823
:103760000000A9F80000ADF80070BDF80000ADF849
:103770000000BDF800003080ADF80080BDF800000A
:10378000ADF80000BDF800003080ADF80010BDF8C5
:103790000000ADF80000BDF80000A9F80000ADF889
:1037A0000040BDF80000ADF80000BDF8000030801A
:1037B000ADF80030BDF80000ADF80000BDF8000025
:1037C0003080B9E0ADF800C0BDF80000ADF80000F1
:1037D000BDF80000A9F80000ADF80070BDF80000C9
:1037E000ADF80000BDF8000030800CF10100ADF82C
:1037F0000000BDF80000ADF80000BDF80000A9F819
:103800000000ADF80080BDF80000ADF80000BDF884
:1038100000003080ADF80010BDF80000ADF80000E9
:10382000BDF80000A9F80000ADF80040BDF80000A8
:10383000ADF80000BDF800003080481CADF8000075
:10384000BDF80000ADF8000000E00DE0BDF800009C
:10385000A9F80000ADF80030BDF80000ADF8000098
:10386000BDF80000308067E09AF8065025B9BAF834
:103870000050281A401E80B2ADF800C0BDF800C04C
:10388000ADF800C0BDF800C0A9F800C04FEA102C88
:10389000ADF800C0BDF80050ADF80050BDF80050C4
:1038A0003580C0B2ADF80000BDF80050ADF8005052
:1038B000BDF800503580ADF800C0BDF800C0ADF8CF
:1038C00000C0BDF800C0A6F800C0ADF80000BDF80B
:1038D0000000ADF80000BDF800003080ADF8001029
:1038E000BDF80000ADF80000BDF80000A9F8000028
:1038F000ADF80040BDF80000ADF80000BDF80000D4
:103900003080ADF80030BDF80000ADF80000BDF823
:1039100000003080ADF80040BDF80000ADF80000B8
:10392000BDF800003080ADF80030BDF80000ADF803
:103930000000BDF800003080BAF80800A9F80000C7
:103940003280BDE8F88F0000F00302203803022027
:10395000FEFF07602DE9F04F95B005F0B3FBDFF8EF
:103960000CB445F21059ABF8040018B105F080FA18
:1039700004F0B3BCFE48016841F002010160006838
:1039800001264FF0200ACDF838A000F00200139075
:103990004FF00308CDF84480F6480EA9CDE90F6634
:1039A000FDF748FE04F0FCFCF34800274FF02041EF
:1039B00007AA0160F149C0E901171021C760C0E9F9
:1039C000047109028761C761C0E908718900C0E913
:1039D0000A7189010763C0E90D7111206946CDE9BB
:1039E0000007552002901520CDE90870CDE906703A
:1039F000E1480D97FFF78AF8322006F06BFDD320DF
:103A0000ADF84C00BDF84C00ADF84C00BDF84C00D2
:103A1000DB4D2880AC1C2088ADF84C00BDF84C0074
:103A20002088ADF84C00BDF84C002088ADF84C0063
:103A3000BDF84C004FF6FF7101EA00202188ADF877
:103A40004C10BDF84C100843C8498880A0F51341BC
:103A500041397DD0D420ADF84C00BDF84C00ADF814
:103A60004C00BDF84C0028802088ADF84C00BDF813
:103A70004C002088ADF84C00BDF84C002088ADF813
:103A80004C00BDF84C004FF6FF71228801EA00207F
:103A9000ADF84C20BDF84C201043ABF80400A0F565
:103AA000A642103A65D04FF45A40ADF84C00BDF82C
:103AB0004C00ADF84C00BDF84C0028802088ADF8D3
:103AC0004C00BDF84C004FF45B40ADF84C00BDF825
:103AD0004C00ADF84C00BDF84C0028802088ADF8B3
:103AE0004C00BDF84C004FF45C42ADF84C2001EAAC
:103AF0000020BDF84C20ADF84C20BDF84C202A80A9
:103B00002288ADF84C20BDF84C201043ABF80400DF
:103B1000B0F5004F0CBFABF80490484529D04FF0EA
:103B2000A100ADF84C00BDF84C00ADF84C00BDF85C
:103B30004C0028802088ADF84C00BDF84C0020884F
:103B4000ADF84C00BDF84C0001EA0020218800E0EF
:103B50000FE0ADF84C10BDF84C1041EA0000ABF896
:103B60000400A0F5AE41613904BF41F66310ABF823
:103B70000400BBF8041083A006F028F87B484FF03F
:103B8000B10C8288ED20A2F51341413900F03C864A
:103B9000E221A2F5A643103B01F0B1814A4544F071
:103BA000798155204FF4704129802080491CAA203A
:103BB00029802080481C522128802180401C082117
:103BC00028802180411C0120298020800D204FF475
:103BD000304129802080481C0D2128802180401CF4
:103BE0002880218034204FF4364129802080491CD0
:103BF00029802080491C298020800D204FF43141EC
:103C000029802080491C29802080481C0D21288083
:103C1000218034214FF4374028802180411C3420FA
:103C200029802080491C2980208000204FF43241C7
:103C300029802080481C002128802180411C0020F0
:103C40002980208024204FF4384129802080481C7E
:103C5000242128802180411C2420298020800120CB
:103C60004FF43F41298020800F214FF433402880BA
:103C70002180401C28802180411C0F202980208029
:103C800034204FF4394129802080481C3421288079
:103C90002180401C2880218008214FF43540288055
:103CA0002180411C082029802080481C0821288070
:103CB000218003214FF442402880218024204FF4AA
:103CC0003A4129802080491C29802080491C298074
:103CD000208000204FF43C4129802080481C78211E
:103CE00028802180411C0020298020804FF43D4104
:103CF00029802080491C782029802080481C0021B0
:103D00002880218000204FF43E4129802080481CDB
:103D100064212880218000204FF451412980208097
:103D2000491C332029802080481C002128802180C4
:103D3000411C342029802080491C002029802080BB
:103D4000481C3A2128802180411C002029802080A5
:103D5000491C4A2029802080491C0020298020807D
:103D6000491C5C2029802080491C13E03803022074
:103D70003038024000040240EC020220040100A09E
:103D8000FEFF0760204C43442049443A25780D0A41
:103D900000000000002029802080491C812029800B
:103DA0002080481C002128802180411CA6202980D9
:103DB0002080481C002128802180401CE52128808B
:103DC0002180411C012029802080491C132029804A
:103DD0002080491C012029802080491C54202980F2
:103DE0002080491C012029802080481C82212880B5
:103DF0002180411C012029802080491CCA20298063
:103E00002080481C022128802180411C002029801C
:103E10002080491C022029802080491C0120298003
:103E20002080481C022128802180411C34202980C8
:103E30002080491C022029802080491C672029807D
:103E40002080481C022128802180411C8420298058
:103E50002080481C022128802180411CA420298028
:103E60002080481C022128802180411CB720298005
:103E70002080491C022029802080491CCF202980D5
:103E80002080481C022128802180411CDE202980BE
:103E90002080491C022029802080491CF220298092
:103EA0002080491C022029802080491CFE20298076
:103EB0002080481C032128802180401C102128805C
:103EC0002180411C032029802080491C3320298027
:103ED0002080481C032128802180411C6D202980DE
:103EE000208000204FF4524129802080491C33203B
:103EF00029802080491C002029802080491C3420F2
:103F000029802080481C002128802180411C3A20E3
:103F100029802080491C002029802080491C4A20BB
:103F200029802080491C002029802080491C5C2099
:103F300029802080491C002029802080491C812064
:103F400029802080481C002128802180411CA62037
:103F500029802080491C002029802080491CE520E0
:103F600029802080481C012128802180401C1321A9
:103F700028802180411C012029802080491C542058
:103F800029802080491C012029802080491C822012
:103F900029802080491C012029802080491CCA20BA
:103FA00029802080491C022029802080491C002073
:103FB00029802080491C022029802080491C012062
:103FC00029802080491C022029802080491C34201F
:103FD00029802080491C022029802080491C6720DC
:103FE00029802080491C022029802080491C8420AF
:103FF00029802080491C022029802080481CA4217F
:1040000028802180411C022029802080491CB72063
:1040100029802080491C022029802080491CCF2033
:1040200029802080491C022029802080491CDE2014
:1040300029802080491C022029802080491CF220F0
:1040400029802080491C022029802080491CFE20D4
:1040500029802080491C032029802080491C1020B1
:1040600029802080491C032029802080491C33207E
:1040700029802080491C032029802080491C6D2034
:104080002980208000204FF4534129802080481C43
:10409000332128802180401C002128802180411C60
:1040A000342029802080481C002128802180401C49
:1040B0003A2128802180411C002029802080491C31
:1040C0004A2029802080491C002029802080481C0B
:1040D0005C2128802180411C002029802080481CF0
:1040E000812128802180411C002029802080491CBA
:1040F000A62029802080481C002128802180401C87
:10410000E52128802180411C012029802080491C34
:10411000132029802080491C012029802080481CF0
:10412000542128802180401C012128802180401CAE
:10413000822128802180411C012029802080481C68
:10414000CA2128802180411C022029802080481C0F
:10415000002128802180411C022029802080491CC8
:10416000012029802080491C022029802080481CB1
:10417000342128802180401C022128802180411C7C
:10418000672029802080481C022128802180411C32
:10419000842029802080481C022128802180401C06
:1041A000A42128802180411C022029802080491CD4
:1041B000B72029802080481C022128802180401CB3
:1041C000CF2128802180401C022128802180411C91
:1041D000DE2029802080481C022128802180401C6C
:1041E000F22128802180401C022128802180411C4E
:1041F000FE2029802080491C032029802080481C23
:10420000102128802180401C032128802180411C0E
:10421000332029802080481C032128802180411CD4
:104220006D202980208000204FF454412980208077
:10423000491C332029802080481C002128802180AF
:10424000401C342128802180401C002128802180AE
:10425000411C3A2029802080491C00202980208090
:10426000491C4A2029802080491C00202980208068
:10427000481C5C2128802180411C0020298020804E
:10428000491C812029802080491C00202980208011
:10429000481CA62128802180411C002029802080E4
:1042A000491CE52029802080491C0120298020808C
:1042B000491C132029802080491C0120298020804E
:1042C000491C542029802080491C012029802080FD
:1042D000491C822029802080481C012128802180BF
:1042E000401CCA2128802180411C02202980208076
:1042F000491C002029802080491C02202980208020
:10430000491C012029802080481C0221288021800E
:10431000411C342029802080491C022029802080D3
:10432000491C672029802080491C02202980208088
:10433000481C842128802180401C02212880218063
:10434000401CA42128802180401C0221288021803B
:10435000411CB72029802080481C02212880218010
:10436000401CCF2128802180411C022029802080F0
:10437000481CDE2128802180401C022128802180C9
:10438000401CF22128802180411C022029802080AD
:10439000481CFE2128802180401C03212880218088
:1043A000411C102029802080491C03202980208066
:1043B000491C332029802080491C0320298020802B
:1043C000491C6D202980208000214FF45540288011
:1043D0002180401C332128802180411C002029801D
:1043E0002080491C342029802080481C00212880FE
:1043F0002180411C3A2029802080491C00202980EE
:104400002080491C4A2029802080491C00202980C6
:104410002080491C5C2029802080491C00202980A4
:104420002080481C812128802180411C0020298077
:104430002080481CA62128802180411C0020298042
:104440002080491CE52029802080491C01202980EA
:104450002080481C132128802180401C01212880B5
:104460002180401C542128802180411C012029806A
:104470002080481C822128802180401C0121288026
:104480002180411CCA2029802080491C02202980CB
:104490002080481C002128802180411C0220298086
:1044A0002080491C012029802080481C022128806E
:1044B0002180411C342029802080481C0221288032
:1044C0002180411C672029802080491C02202980EE
:1044D0002080491C842029802080481C02212880BB
:1044E0002180411CA42029802080491C0220298091
:1044F0002080481CB72128802180401C0221288070
:104500002180411CCF2029802080491C0220298045
:104510002080481CDE2128802180411C0220298027
:104520002080491CF22029802080491C02202980FB
:104530002080481CFE2128802180401C03212880E7
:104540002180411C102029802080481C03212880C4
:104550002180411C332029802080491C0320298090
:104560002080491C6D202980208000214FF4564076
:1045700028802180411C332029802080491C002074
:1045800029802080491C342029802080491C00205B
:1045900029802080491C3A2029802080491C002045
:1045A00029802080481C4A2128802180411C00202D
:1045B00029802080491C5C2029802080481C002103
:1045C00028802180401C812128802180411C0020DE
:1045D00029802080491CA62029802080491C002099
:1045E00029802080481CE52128802180411C012051
:1045F00029802080491C132029802080491C01200B
:1046000029802080491C542029802080491C0120B9
:1046100029802080491C822029802080491C01207B
:1046200029802080491CCA2029802080491C022022
:1046300029802080491C002029802080491C0220DC
:1046400029802080491C012029802080491C0220CB
:1046500029802080491C342029802080491C022088
:1046600029802080491C672029802080481C022145
:1046700028802180411C842029802080491C022020
:1046800029802080491CA42029802080491C0220E8
:1046900029802080491CB72029802080491C0220C5
:1046A00029802080491CCF2029802080491C02209D
:1046B00029802080491CDE2029802080491C02207E
:1046C00029802080491CF22029802080491C02205A
:1046D00029802080491CFE2029802080491C03203D
:1046E00029802080491C102029802080491C03201B
:1046F00029802080491C332029802080491C0320E8
:1047000029802080491C6D202980208055204FF46D
:10471000704129802080491CAA2029802080491CC2
:10472000522029802080491C082029802080491C93
:10473000002029802080CC204FF431412980208026
:10474000491C00202980208005204FF43641298013
:10475000208070204FF4374129802080491C298017
:10476000208001204FF4384129802080491C0320FB
:1047700029802080491C29802080491C2980208094
:1047800002204FF43C4129802080491C00202980D0
:104790002080491C29802080D0204FF44941298065
:1047A0002080491C022029802080491C502029801B
:1047B0002080491C29802080491C298020800020DD
:1047C0004FF454512980208055204FF4685129809E
:1047D00020804FF48850ADF84C00BDF84C00ADF887
:1047E0004C00BDF84C002880782005F099FE4FF46D
:1047F0002450ADF84C00BDF84C00ADF84C00BDF8AD
:104800004C00288003F069BDCF21ADF84C10BDF8F5
:104810004C10ADF84C10BDF84C102980ADF84C7020
:10482000BDF84C10ADF84C10BDF84C102180C123E0
:10483000ADF84C30BDF84C10ADF84C10BDF84C1034
:1048400021803021ADF84C10BDF84C20ADF84C2043
:10485000BDF84C202280ADF84C00BDF84C00ADF8FE
:104860004C00BDF84C0028806420ADF84C00BDF829
:104870004C00ADF84C00BDF84C002080ADF84C80E9
:10488000BDF84C00ADF84C00BDF84C002080122063
:10489000ADF84C00BDF84C00ADF84C00BDF84C0034
:1048A00020808120ADF84C00BDF84C00ADF84C00E4
:1048B000BDF84C002080E820ADF84C00BDF84C005D
:1048C000ADF84C00BDF84C0028808520ADF84C00B8
:1048D000BDF84C00ADF84C00BDF84C002080102213
:1048E000ADF84C20BDF84C00ADF84C00BDF84C00C4
:1048F00020807A20ADF84C00BDF84C00ADF84C009B
:10490000BDF84C002080CB20ADF84C00BDF84C0029
:10491000ADF84C00BDF84C0028803920ADF84C00B3
:10492000BDF84C00ADF84C00BDF84C0020802C20A8
:10493000ADF84C00BDF84C00ADF84C00BDF84C0093
:104940002080ADF84C70BDF84C00ADF84C00BDF8BF
:104950004C0020803420ADF84C00BDF84C00ADF880
:104960004C00BDF84C0020800220ADF84C00BDF892
:104970004C00ADF84C00BDF84C002080F720ADF89D
:104980004C00BDF84C00ADF84C00BDF84C00288040
:10499000ADF84CA0BDF84C00ADF84C00BDF84C0093
:1049A0002080EA20ADF84C00BDF84C00ADF84C007A
:1049B000BDF84C002880ADF84C70BDF84C00ADF847
:1049C0004C00BDF84C002080ADF84C70BDF84C0098
:1049D000ADF84C00BDF84C002080C020ADF84C0074
:1049E000BDF84C00ADF84C00BDF84C0028801B20F1
:1049F000ADF84C00BDF84C00ADF84C00BDF84C00D3
:104A00002080ADF84C30BDF84C00ADF84C00BDF83E
:104A10004C002880ADF84C60BDF84C00ADF84C005F
:104A2000BDF84C002080C520ADF84C00BDF84C000E
:104A3000ADF84C00BDF84C002880ADF84C10BDF826
:104A40004C00ADF84C00BDF84C002080ADF84C1087
:104A5000BDF84C00ADF84C00BDF84C002080C720DC
:104A6000ADF84C00BDF84C00ADF84C00BDF84C0062
:104A70002880B720ADF84C00BDF84C00ADF84C00D4
:104A8000BDF84C0020803620ADF84C00BDF84C003D
:104A9000ADF84C00BDF84C0028804820ADF84C0023
:104AA000BDF84C00ADF84C00BDF84C0020803A2019
:104AB000ADF84C00BDF84C00ADF84C00BDF84C0012
:104AC00028805520ADF84C00BDF84C00ADF84C00E6
:104AD000BDF84C002080ADF84CC0BDF84C00ADF8DE
:104AE0004C00BDF84C002880ADF84C70BDF84C006F
:104AF000ADF84C00BDF84C0020801A20ADF84C00F9
:104B0000BDF84C00ADF84C00BDF84C002080B6203C
:104B1000ADF84C00BDF84C00ADF84C00BDF84C00B1
:104B200028800A23ADF84C30BDF84C00ADF84C009D
:104B3000BDF84C002080A220ADF84C00BDF84C0020
:104B4000ADF84C00BDF84C002080F220ADF84C00D0
:104B5000BDF84C00ADF84C00BDF84C002880ADF815
:104B60004C70BDF84C00ADF84C00BDF84C002080F6
:104B70002620ADF84C00BDF84C00ADF84C00BDF857
:104B80004C002880ADF84C60BDF84C00ADF84C00EE
:104B9000BDF84C002080E020ADF84C00BDF84C0082
:104BA000ADF84C00BDF84C0028800F20ADF84C004B
:104BB000BDF84C10ADF84C10BDF84C1021804FF0F2
:104BC0002A0CADF84CC0BDF84C10ADF84C10BDF837
:104BD0004C1021802821ADF84C10BDF84C10ADF8D8
:104BE0004C10BDF84C1021800821ADF84C10BDF8D8
:104BF0004C80ADF84C80BDF84C80A4F800804FF09C
:104C00000E08ADF84C80BDF84C80ADF84C80BDF876
:104C10004C80A4F80080ADF84C10BDF84C10ADF8F5
:104C20004C10BDF84C1021805421ADF84C10BDF84B
:104C30004C10ADF84C10BDF84C102180A921ADF8F6
:104C40004C10BDF84C10ADF84C10BDF84C10218044
:104C50004321ADF84C10BDF84C10ADF84C10BDF828
:104C60004C102180ADF84C30BDF84C10ADF84C1014
:104C7000BDF84C102180ADF84C00BDF84C10ADF8DB
:104C80004C10BDF84C102180ADF84C70BDF84C10A4
:104C9000ADF84C10BDF84C102180ADF84C70BDF84B
:104CA0004C10ADF84C10BDF84C102180ADF84C7094
:104CB000BDF84C10ADF84C10BDF84C102180ADF88B
:104CC0004C70BDF84C10ADF84C10BDF84C10218064
:104CD000E121ADF84C10BDF84C10ADF84C10BDF80A
:104CE0004C102980ADF84C70BDF84C10ADF84C104C
:104CF000BDF84C1021801521ADF84C10BDF84C10BA
:104D0000ADF84C10BDF84C1021801721ADF84C10B7
:104D1000BDF84C10ADF84C10BDF84C1021800721A7
:104D2000ADF84C10BDF84C10ADF84C10BDF84C105F
:104D300021801121ADF84C10BDF84C30ADF84C304D
:104D4000BDF84C3023800623ADF84C30BDF84C3014
:104D5000ADF84C30BDF84C3023802B23ADF84C30EF
:104D6000BDF84C80ADF84C80BDF84C80A4F80080B4
:104D70004FF05608ADF84C80BDF84C80ADF84C8033
:104D8000BDF84C80A4F800804FF03C08ADF84C8092
:104D9000BDF84C80ADF84C80BDF84C80A4F8008084
:104DA0004FF00508ADF84C80BDF84C80ADF84C8054
:104DB000BDF84C80A4F80080ADF84C20BDF84C2024
:104DC000ADF84C20BDF84C202280ADF84C00BDF869
:104DD0004C20ADF84C20BDF84C2022803F22ADF88D
:104DE0004C20BDF84C80ADF84C80BDF84C80A4F848
:104DF0000080ADF84C20BDF84C80ADF84C80BDF87B
:104E00004C80A4F80080ADF84C00BDF84C00ADF823
:104E10004C00BDF84C002080ADF84C30BDF84C0083
:104E2000ADF84C00BDF84C002880ADF84C70BDF8D2
:104E30004C00ADF84C00BDF84C002080ADF84C7033
:104E4000BDF84C00ADF84C00BDF84C002080ADF82A
:104E50004C60BDF84C00ADF84C00BDF84C00208013
:104E6000ADF84C20BDF84C00ADF84C00BDF84C003E
:104E70002080ADF84CC0BDF84C00ADF84C00BDF83A
:104E80004C002880ADF84C70BDF84C00ADF84C00DB
:104E9000BDF84C002080ADF84C70BDF84C00ADF86A
:104EA0004C00BDF84C002080ADF84C70BDF84C00B3
:104EB000ADF84C00BDF84C002080EF20ADF84C0060
:104EC000BDF84C00ADF84C00BDF84C002080ADF8AA
:104ED0004C10BDF84C00ADF84C00BDF84C002880DB
:104EE000782005F0F7FA2920ADF84C00BDF84C0009
:104EF000ADF84C00BDF84C00288003F0EEB9ADF8D9
:104F00004C00BDF84C00ADF84C00BDF84C002880BA
:104F1000ADF84C60BDF84C00ADF84C00BDF84C004D
:104F20002080FE20ADF84C00BDF84C00ADF84C00E0
:104F3000BDF84C002080EE20ADF84C00BDF84C00D0
:104F4000ADF84C00BDF84C002880DE20ADF84C00D8
:104F5000BDF84C00ADF84C00BDF84C00208021227B
:104F6000ADF84C20BDF84C00ADF84C00BDF84C003D
:104F70002080F120ADF84C00BDF84C00ADF84C009D
:104F8000BDF84C0028800120ADF84C00BDF84C0065
:104F9000ADF84C00BDF84C002080DF20ADF84C008F
:104FA000BDF84C00ADF84C00BDF84C002880102036
:104FB000ADF84C00BDF84C00ADF84C00BDF84C000D
:104FC0002080C420ADF84C00BDF84C00ADF84C007A
:104FD000BDF84C0028808F20ADF84C00BDF84C0087
:104FE000ADF84C00BDF84C002080C620ADF84C0058
:104FF000BDF84C00ADF84C00BDF84C002880384698
:10500000ADF84C70BDF84C30ADF84C30BDF84C30BC
:105010002380E223ADF84C30BDF84C10ADF84C10B5
:10502000BDF84C102180ADF84C30BDF84C10ADF8F7
:105030004C10BDF84C102180ADF84C30BDF84C1030
:10504000ADF84C10BDF84C102180BF21ADF84C10CC
:10505000BDF84C10ADF84C10BDF84C102980AA21B9
:10506000ADF84C10BDF84C10ADF84C10BDF84C101C
:105070002180B021ADF84C10BDF84C10ADF84C10AB
:10508000BDF84C1029800D21ADF84C10BDF84C1026
:10509000ADF84C10BDF84C102180ADF84C00BDF8B7
:1050A0004C10ADF84C10BDF84C1021800D21ADF81E
:1050B0004C10BDF84C10ADF84C10BDF84C102180D0
:1050C000ADF84C00BDF84C10ADF84C10BDF84C10CC
:1050D00021801121ADF84C10BDF84C10ADF84C10EA
:1050E000BDF84C102180ADF84C00BDF84C10ADF867
:1050F0004C10BDF84C1021801921ADF84C10BDF8B2
:105100004C10ADF84C10BDF84C102180ADF84C009F
:10511000BDF84C10ADF84C10BDF84C102180ADF826
:105120004C20BDF84C10ADF84C10BDF84C1021804F
:10513000ADF84C00BDF84C10ADF84C10BDF84C105B
:1051400021802D21ADF84C10BDF84C10ADF84C105D
:10515000BDF84C102180ADF84C00BDF84C10ADF8F6
:105160004C10BDF84C1021803D21ADF84C10BDF81D
:105170004C10ADF84C10BDF84C102180ADF84C002F
:10518000BDF84C10ADF84C10BDF84C1021805D22DC
:10519000ADF84C20BDF84C10ADF84C10BDF84C10DB
:1051A0002180ADF84C00BDF84C10ADF84C10BDF8A6
:1051B0004C102180ADF84C20BDF84C10ADF84C10CF
:1051C000BDF84C102180ADF84C00BDF84C10ADF886
:1051D0004C10BDF84C102180ADF84CC0BDF84C10FF
:1051E000ADF84C10BDF84C1029808021ADF84C1062
:1051F000BDF84C10ADF84C10BDF84C102180ADF846
:105200004C00BDF84C10ADF84C10BDF84C1021808E
:105210008B23ADF84C30BDF84C10ADF84C10BDF8F8
:105220004C102180ADF84C00BDF84C10ADF84C107E
:10523000BDF84C1021804FF0960EADF84CE0BDF853
:105240004C10ADF84C10BDF84C102180ADF84C005E
:10525000BDF84C10ADF84C10BDF84C102180B221B7
:10526000ADF84C10BDF84C10ADF84C10BDF84C101A
:105270002980ADF84C00BDF84C10ADF84C10BDF8CD
:105280004C102180ADF84C00BDF84C10ADF84C101E
:10529000BDF84C20214622804FF0020CADF84CC0E6
:1052A000BDF84C20ADF84C20BDF84C202280ADF864
:1052B0004C00BDF84C20ADF84C20BDF84C202280AD
:1052C000ADF84C80BDF84C20ADF84C20BDF84C201A
:1052D0000A80ADF84C00BDF84C20ADF84C20BDF86C
:1052E0004C200A80B322ADF84C20BDF84C20ADF81C
:1052F0004C20BDF84C202A80ADF84C00BDF84C2065
:10530000ADF84C20BDF84C200A80ADF84C00BDF83B
:105310004C20ADF84C20BDF84C200A80ADF84C0074
:10532000BDF84C20ADF84C20BDF84C200A80ADF8FB
:105330004C00BDF84C20ADF84C20BDF84C200A8044
:10534000ADF84C00BDF84C20ADF84C20BDF84C2019
:105350000A80ADF84C00BDF84C20ADF84C20BDF8EB
:105360004C200A80ADF84C00BDF84C20ADF84C2024
:10537000BDF84C200A80ADF84C00BDF84C20ADF8CB
:105380004C20BDF84C200A80ADF84C00BDF84C20F4
:10539000ADF84C20BDF84C200A80ADF84C00BDF8AB
:1053A0004C20ADF84C20BDF84C200A80ADF84C00E4
:1053B000BDF84C20ADF84C20BDF84C200A80ADF86B
:1053C0004C00BDF84C20ADF84C20BDF84C200A80B4
:1053D000ADF84C00BDF84C20ADF84C20BDF84C2089
:1053E0000A80ADF84C00BDF84C20ADF84C20BDF85B
:1053F0004C200A80ADF84C00BDF84C20ADF84C2094
:10540000BDF84C200A80ADF84C00BDF84C20ADF83A
:105410004C20BDF84C200A80ADF84C00BDF84C2063
:10542000ADF84C20BDF84C200A80ADF84C00BDF81A
:105430004C20ADF84C20BDF84C200A80ADF84C0053
:10544000BDF84C20ADF84C20BDF84C200A80ADF8DA
:105450004C00BDF84C20ADF84C20BDF84C200A8023
:10546000ADF84C00BDF84C20ADF84C20BDF84C20F8
:105470000A80ADF84C00BDF84C20ADF84C20BDF8CA
:105480004C200A80ADF84C00BDF84C20ADF84C2003
:10549000BDF84C200A80ADF84C00BDF84C20ADF8AA
:1054A0004C20BDF84C200A80B422ADF84C20BDF849
:1054B0004C20ADF84C20BDF84C202A808B22ADF852
:1054C0004C20BDF84C20ADF84C20BDF84C200A8093
:1054D000ADF84C00BDF84C20ADF84C20BDF84C2088
:1054E0000A80ADF84CE0BDF84C20ADF84C20BDF87A
:1054F0004C200A80ADF84C00BDF84C20ADF84C2093
:10550000BDF84C200A80A122ADF84C20BDF84C20FB
:10551000ADF84C20BDF84C200A80ADF84C00BDF829
:105520004C20ADF84C20BDF84C200A80B522ADF8D7
:105530004C20BDF84C20ADF84C20BDF84C202A8002
:10554000ADF84CC0BDF84C20ADF84C20BDF84C2057
:105550000A80ADF84C00BDF84C20ADF84C20BDF8E9
:105560004C200A80ADF84C80BDF84C20ADF84C20A2
:10557000BDF84C200A80ADF84C00BDF84C20ADF8C9
:105580004C20BDF84C200A800422ADF84C20BDF818
:105590004C30ADF84C30BDF84C300B80ADF84C00C1
:1055A000BDF84C30ADF84C30BDF84C300B80B62314
:1055B000ADF84C30BDF84C30ADF84C30BDF84C3047
:1055C0002B80ADF84C00BDF84C30ADF84C30BDF838
:1055D0004C300B80ADF84C00BDF84C30ADF84C3081
:1055E000BDF84C300B80B723ADF84C30BDF84C30D3
:1055F000ADF84C30BDF84C302B80ADF84C00BDF808
:105600004C30ADF84C30BDF84C300B80ADF84C0050
:10561000BDF84C30ADF84C30BDF84C300B803F231A
:10562000ADF84C30BDF84C30ADF84C30BDF84C30D6
:105630000B80ADF84C00BDF84C30ADF84C30BDF8E7
:105640004C300B805E23ADF84C30BDF84C30ADF8DB
:105650004C30BDF84C300B80ADF84C00BDF84C30F0
:10566000ADF84C30BDF84C300B806423ADF84C30B5
:10567000BDF84C30ADF84C30BDF84C300B80ADF877
:105680004C00BDF84C30ADF84C30BDF84C300B80C0
:105690008C23ADF84C30BDF84C30ADF84C30BDF833
:1056A0004C300B80ADF84C00BDF84C30ADF84C30B0
:1056B000BDF84C300B80AC23ADF84C30BDF84C300D
:1056C000ADF84C30BDF84C300B80ADF84C00BDF857
:1056D0004C30ADF84C30BDF84C300B80DC23ADF8CD
:1056E0004C30BDF84CC0ADF84CC0BDF84CC0A1F872
:1056F00000C0ADF84C00BDF84CC0ADF84CC0BDF8D2
:105700004CC0A1F800C04FF0700CADF84CC0BDF813
:105710004CC0ADF84CC0BDF84CC0A1F800C0ADF80D
:105720004C00BDF84CC0ADF84CC0BDF84CC0A1F861
:1057300000C04FF0900CADF84CC0BDF84CC0ADF8B7
:105740004CC0BDF84CC0A1F800C0ADF84C00BDF88D
:105750004CC0ADF84CC0BDF84CC0A1F800C04FF033
:10576000EB0CADF84CC0BDF84CC0ADF84CC0BDF86A
:105770004CC0A1F800C0ADF84C00BDF84CC0ADF86D
:105780004CC0BDF84CC0A1F800C0ADF84C30BDF81D
:105790004C30ADF84C30BDF84C300B80ADF84C00BF
:1057A000BDF84C30ADF84C30BDF84C300B80B82310
:1057B000ADF84C30BDF84C30ADF84C30BDF84C3045
:1057C0002B80ADF84C00BDF84C30ADF84C30BDF836
:1057D0004C300B80ADF84C00BDF84C30ADF84C307F
:1057E000BDF84C300B80ADF84C00BDF84C30ADF836
:1057F0004C30BDF84C300B80ADF84C00BDF84C304F
:10580000ADF84C30BDF84C300B80ADF84C00BDF815
:105810004C30ADF84C30BDF84C300B80ADF84C003E
:10582000BDF84C30ADF84C30BDF84C300B80ADF8C5
:105830004C00BDF84C30ADF84C30BDF84C300B800E
:10584000ADF84C00BDF84C30ADF84C30BDF84C30E4
:105850000B80BA23ADF84C30BDF84C30ADF84C306D
:10586000BDF84C302B802424ADF84C40BDF84C30B2
:10587000ADF84C30BDF84C300B80ADF84C00BDF8A5
:105880004C30ADF84C30BDF84C300B80ADF84C00CE
:10589000BDF84C30ADF84C30BDF84C300B80ADF855
:1058A0004C00BDF84C30ADF84C30BDF84C300B809E
:1058B000C123ADF84C30BDF84C30ADF84C30BDF8DC
:1058C0004C302B802023ADF84C30BDF84C30ADF877
:1058D0004C30BDF84C300B80ADF84C00BDF84C306E
:1058E000ADF84C30BDF84C300B805423ADF84C3043
:1058F000BDF84C30ADF84C30BDF84C300B80ADF8F5
:105900004C00BDF84C30ADF84C30BDF84C300B803D
:10591000FF23ADF84C30BDF84C30ADF84C30BDF83D
:105920004C300B80ADF84C00BDF84C30ADF84C302D
:10593000BDF84C300B80C223ADF84C30BDF84C3074
:10594000ADF84C30BDF84C302B800A23ADF84C300C
:10595000BDF84C30ADF84C30BDF84C300B80ADF894
:105960004C00BDF84C30ADF84C30BDF84C300B80DD
:10597000ADF84C20BDF84C20ADF84C20BDF84C20C3
:105980000A80ADF84C00BDF84C20ADF84C20BDF8B5
:105990004C200A80C322ADF84C20BDF84C20ADF855
:1059A0004C20BDF84C202A804FF03C0CADF84CC088
:1059B000BDF84C20ADF84C20BDF84C200A80ADF865
:1059C0004C00BDF84C20ADF84C20BDF84C200A80AE
:1059D0003A22ADF84C20BDF84C20ADF84C20BDF873
:1059E0004C200A80ADF84C00BDF84C20ADF84C209E
:1059F000BDF84C200A803922ADF84C20BDF84C206F
:105A0000ADF84C20BDF84C200A80ADF84C00BDF834
:105A10004C20ADF84C20BDF84C200A803722ADF860
:105A20004C20BDF84C20ADF84C20BDF84C200A802D
:105A3000ADF84C00BDF84C20ADF84C20BDF84C2022
:105A40000A80ADF84CC0BDF84C20ADF84C20BDF834
:105A50004C200A80ADF84C00BDF84C20ADF84C202D
:105A6000BDF84C200A803622ADF84C20BDF84C2001
:105A7000ADF84C20BDF84C200A80ADF84C00BDF8C4
:105A80004C20ADF84C20BDF84C200A804FF0320A73
:105A9000ADF84CA0BDF84C20ADF84C20BDF84C2022
:105AA0000A80ADF84C00BDF84C20ADF84C20BDF894
:105AB0004C200A804FF02F08ADF84C80BDF84C20E8
:105AC000ADF84C20BDF84C200A80ADF84C00BDF874
:105AD0004C20ADF84C20BDF84C200A804FF02C0E25
